:0300000002089C57
:0C089C00787FE4F6D8FD7581760208E351
:090D380073746F700A00000000E2
:100AC000046D00000000016B00016C00012D0901A4
:100AD0006202016901016A010A2103840309028E8D
:100AE0000213019812500229031F0415050B060179
:080AF00006F707ED08E309D940
:03002300020D18B3
:0B0D1800309807C298C20085992E3267
:03004300020A832B
:100A8300C0E0C0D075D000C000E59A30E105539AAC
:100A9300FDC201E59A30E01E539AFEC3E56B940351
:100AA30074809480500B742F256BF8A69B056B8084
:0D0AB30003859B2CC201D000D0D0D0E032D2
:03008B000200462A
:10004600C0E0C0D075D000C000C007E5AC30E10507
:1000560053ACFDC202E5AC30E01DC20253ACFEAFAC
:100066006C056C74322FF8A6ADC3E56C941E7480D3
:1000760094804003756C00D007D000D0D0D0E03219
:0A0D230000007F907E9DDEFEDFFCE5
:010D2D0022A3
:100C3B007D017C00120D230DBD00010CED640B4CEE
:020C4B0070F245
:010C4D002284
:100C4E007D017C00120D230DBD00010CED64654C81
:020C5E0070F232
:010C60002271
:100CAC007F017E007E1E7832E4F608DEFCE4F56CF3
:010CBC002215
:100CBD007FA5120D497F75120D497F1A120D49221C
:100CCD007FA5120D497F57120D497FFC120D492248
:100CDD007FA5120D497F58120D497FFD120D492236
:0A0D2E00120CBD120CCD120CDD22D8
:100C6100120CAC7FA5120D497FC5120D497F6A1286
:030C71000D492208
:100C7400120CAC7FA5120D497FD5120D497F7A1253
:030C84000D4922F5
:100C2500120CAC7FA5120D497F95120D497F3A1222
:060C35000D49120C3B22E8
:100C8700120CAC7FA5120D497FB5120D497F5A1280
:030C97000D4922E2
:10064500120C25E4FFFEC3EF941EEE6480948050E7
:100655006974322FF8E6645A705974332FF8E664DA
:100665005A705074342FF8E66445704774352FF886
:10067500E66406703EEF2404F513E43EF512EF241C
:100685000AFDE43EFCC3E5139DEC6480F8E51264C5
:1006950080985026AD1374322DF8E6FCEDC39FFB10
:1006A500E49400745F2BF8A6040513E513700205A6
:1006B5001280CB0FBF00010E808CE567F514E5684D
:1006C500F515E5152401CFE43514CF24FFFDEF34EE
:1006D500FFFC1202A48F198E188D178C16E4FBFAF5
:1006E50079C878421201898F198E188D178C16AE2C
:1006F50014AF157C007D64120448AC06AD07EC12FE
:1007050002A48F1D8E1C8D1B8C1AAF19AE18AD1748
:10071500AC16120D0BE4FBFA79347843120226402D
:100725000E85197085186F85176E85166D8023AF38
:100735001DAE1CAD1BAC1A120D0BE4FBFA79347817
:1007450043120226400C851D70851C6F851B6E8526
:050755001A6D120D23D6
:01075A00227C
:1009B100E52DFB3395E0FAEB24FFFFEA34FFFE7CE3
:1009C1008A7D40120436C374669FFF74569EFE9062
:1009D100FF00F0A3EFF0A3E4F0A3F090FF10EEF01E
:1009E100A3EFF0A3E4F0A3F090FF20EEF0A3EFF06B
:1009F100A3E4F0A3F090FF30EEF0A3EFF0A3E4F056
:100A0100A3F0EB64094A701890FF00F0A3F090FF87
:100A110010F0A3F090FF20F0A3F090FF30F0A3F0CE
:010A210022B2
:10075B0043BA8090FFF2740AF090FFF07456F0A346
:10076B007466F01209B190FF04E04480F0E054E7A6
:10077B00F090FF00E4F0A3F0A3F0A3F090FF14E0DF
:10078B004480F0E054E7F090FF10E4F0A3F0A3F006
:10079B00A3F090FF24E04480F0E054E7F090FF20BA
:1007AB00E4F0A3F0A3F0A3F090FF34E04480F0E07A
:1007BB0054E7F090FF30E4F0A3F0A3F0A3F090FF28
:1007CB0040E55AF0A3E55BF0A37456F0A37466F012
:1007DB00A3E04480F0E054E7F090FF50E521F0A354
:1007EB00E522F0A37456F0A37466F0A3E04480F006
:0E07FB00E054E7F053BA7F75FE80120C4E22D8
:1000260090FF04E0547FF090FF14E0547FF090FFBF
:0D00360024E0547FF090FF34E0547FF0226E
:100B8E0043BA80120026E52D6562600F7BFF7A0D59
:100B9E007938120B4485622D1209B153BA7FE4F5F0
:020BAE006922BA
:10000300120B8E120C3B43BA8090FF14E04480F035
:0E00130090FF34E04480F053BA7F75690122FB
:100BB000120B8E120C3B43BA8090FF04E04480F08D
:0E0BC00090FF24E04480F053BA7F7569022252
:100BCE00120B8E120C3B43BA8090FF04E04480F06F
:0E0BDE0090FF34E04480F053BA7F7569032223
:100BEC00120B8E120C3B43BA8090FF14E04480F041
:0E0BFC0090FF24E04480F053BA7F7569042214
:020928008F0D31
:10092A00AC0DEC1202A9AB70AA6FA96EA86D1200E9
:10093A00958F118E108D0F8C0EAC0DEC1202A91230
:10094A000D0BE4FBFA79B4784212022650037F00B9
:10095A0022120BCEAF11AE10AD0FAC0EAB70AA6F58
:10096A00A96EA86D120226500D120645120D237F9C
:10097A0033120D4180DEE56A1460121460141460AB
:10098A001614601824047017120B8E8012120003BA
:10099A00800D120BB08008120BCE8003120BEC7F75
:0609AA0059120D417F010E
:0109B0002224
:020809008F0D51
:10080B00AC0DEC1202A9A804A905AA06AB07AF70A0
:10081B00AE6FAD6EAC6D1200918F118E108D0F8C73
:10082B000EAC0DEC1202A9120D0BE4FBFA79B478A5
:10083B004212022650037F0022120BECAF11AE10B6
:10084B00AD0FAC0EAB70AA6FA96EA86D120226602D
:10085B000F400D7F44120D41120645120D2380DC13
:10086B00E56A1460121460141460161460182404E2
:10087B007017120B8E8012120003800D120BB080BA
:10088B0008120BCE8003120BEC7F58120D417F0127
:01089B00223A
:100AF900E52D6562601FE56924FE600E14600F1420
:100B090060102403700F12000322120BB022120B83
:060B1900CE22120BEC22BB
:1004E100780A7C007D007BFF7A0D793E7E007F03D8
:1004F1001203F7120C3B120C0A120C9A120CFCD2CA
:10050100AC75AF09D2AF120D2E12075BE4F56B1279
:100511000D23AF2FEF3395E04F60F1120D23E4FF70
:10052100FE742F2FF8E6FD740A2FF8A6050FBF0001
:10053100010EEF64034E70E9E4FEFF7E03782FE4C1
:10054100F608DEFC7E007F03120645E50A14B409B5
:1005510000400302063B90056575F003A4C58325A1
:10056100F0C583730205800205920205A50205B854
:100571000205CB0205EA02060902063B0206177FC5
:1005810001120D41120003120CDDAF69120D418001
:10059100817F02120D41120BB0120CDDAF69120DF9
:1005A100410205137F03120D41120BCE120CDDAF78
:1005B10069120D410205137F04120D41120BEC1259
:1005C1000CDDAF69120D4102051385696AAF0BEFAE
:1005D1003395E04F70030205137F07120D41AF0BF6
:1005E100120928120CDD02051385696AAF0BEF337E
:1005F10095E04F70030205137F06120D41AF0B12F8
:100601000809120CDD0205137F07120D41850B62EB
:10061100120AF9020513AF0BEF3395E0FEEF24FF49
:10062100FFEE34FFFEAD0CED3395E0FCED24FFFD54
:10063100EC34FFFC120A22020513120B8E02051381
:030641000205139C
:010644002293
:100C0A00759850E4F589758BE0758DFED28EF58E58
:0B0C1A00438E40538EFEC200F52E22D8
:0F0CED002000FDD2008F993099FDC299C20022DC
:100B1F008B718A728973AB71AA72A97312041D60EB
:100B2F00130573E5737002057214F912041DFF1299
:050B3F000CED80E22234
:100C9A00759A1075D7E075D6FE438E10438E04C23E
:020CAA00012225
:080D41002001FDD2018F9B226D
:100B44008B128A138914AB12AA13A91412041D6000
:100B5400130514E5147002051314F912041DFF1291
:050B64000D4180E222BA
:0F0CFC0075AC5075D5E075D4FE75D10AC20222D1
:080D49002002FDD2028FAD2251
:100B69008B748A758976AB74AA75A97612041D608F
:100B7900130576E5767002057514F912041DFF1246
:050B89000D4980E2228D
:100A2200AB07AA06120D41AF05120D4143BA80C3AE
:100A3200EB9405EA64809480501AC3EA648094803F
:100A42004012EB25E02421F8E6FF08E690FF50CFA4
:100A5200F0A3EFF0C3ED9409EC64809480501AC3C4
:100A6200EC648094804012ED25E02450F8E6FF0803
:100A7200E690FF40CFF0A3EFF053BA7F7E007F01F4
:010A82002251
:10008E00020312E86480F8E933E83360110460F08B
:10009E00ED33EC337009E8FCE9FDEAFEEBFF2204D8
:1000AE0060DED3EB9FEA9EE99DE8C2E78CF0C2F7D3
:1000BE0095F0400CE8CCF8E9CDF9EACEFAEBCFFB9F
:1000CE001202DD85D0F05804700320D5B3E8047019
:1000DE00075002B2D502031C92D5EC0460F7E4CCB3
:1000EE00C0E0C398F8603B94186008400DD0E0FB68
:1000FE000202F4E4FBFAC9FC8028E830E406E4C905
:10010E00FBE4CAFCE830E305E4C9CACBFCE85407BB
:10011E006010F8C3E913F9EA13FAEB13FBEC13FCC6
:10012E00D8F130F52FC3E49CFCEF9BFFEE9AFEED69
:10013E0099FDD0E0FBEF4E4D4C701222DB03020313
:10014E0019EC2CFCEF33FFEE33FEED33FDED30E713
:10015E00EB0202F4EF2BFFEE3AFEED39FDD0E0FBA1
:10016E0050130BBB000302031CED13FDEE13FEEF49
:08017E0013FFEC13FC0202F474
:1001860002031CEC5D046005E859047003020312C7
:100196001202DD580460F6EC4860F2EC7004FDFED5
:1001A600FF22C860DB2481C85009C398600250064C
:1001B6000203199850CAF582E9294B4A7005AB82A9
:1001C60002030875F0007C1A7880C3EF9BEE9AED67
:1001D60099400DC3EF9BFFEE9AFEED99FDE842F0C4
:1001E600DC23ACF0D0E0FFD0E0FED0E0FDAB822017
:1001F600E7101BEB60BAEC2CFCEF33FFEE33FEEDA1
:1002060033FD0202F4E803F830E705C0F075F000AC
:10021600EF2FFFEE33FEED33FD40B830E7C280AA84
:1002260074F8CC6480CCC86480C8F58204604FC37F
:10023600EB9FF5F0EA9E42F0E99D42F0E89C45F01E
:10024600603C501DE5825FFFE582D313CB5BCBF4A8
:100256002B5582FB50280ABA002409B900200880D1
:100266001DE5825BFBE582D313CF5FCFF4C3132F6B
:100276005582FF50090EBE00050DBD00010CC3EBF3
:100286009FF5F0EA9E42F0E99D42F0E89C45F06059
:0902960007CC4820E701B3EC227B
:10029F0075F020800E75F010800575F0087D007EDA
:1002AF00007F003392D530D50312047EEC3340101B
:1002BF00EF33FFEE33FEED33FDEC33FCD5F0ED22E3
:0E02CF00E5F0247EA2D513CC92E7CDCEFF221F
:0D0D0B00ED33EC3360065004EC6480FC22F4
:1002DD00E9D2E7C933E833F892D5EDD2E7CD33EC67
:0702ED0033FC5002B2D522E0
:1002F400EC30E7100FBF000C0EBE00080DBD00046B
:100304000BEB6014A2D5EB13FCED92E7FD2274FF16
:10031400FCFDFEFF22E480F8A2D574FF13FC7D806F
:03032400E480EF83
:1008A8000204E1E493A3F8E493A34003F68001F281
:1008B80008DFF48029E493A3F85407240CC8C33351
:1008C800C4540F4420C8834004F456800146F6DF20
:1008D800E4800B0102040810204080900AC0E47EE6
:1008E800019360BCA3FF543F30E509541FFEE49315
:1008F800A360010ECF54C025E060A840B8E493A3DC
:10090800FAE493A3F8E493A3C8C582C8CAC583CA06
:10091800F0A3C8C582C8CAC583CADFE9DEE780BEBE
:010AF80000FD
:10032700E709F608DFFA8046E709F208DFFA803EB8
:1003370088828C83E709F0A3DFFA8032E309F608A5
:10034700DFFA8078E309F208DFFA807088828C830D
:10035700E309F0A3DFFA806489828A83E0A3F608C1
:10036700DFFA805889828A83E0A3F208DFFA804C9B
:1003770080D280FA80C680D4806980F28033801072
:1003870080A680EA809A80A880DA80E280CA8033DB
:1003970089828A83ECFAE493A3C8C582C8CCC58353
:1003A700CCF0A3C8C582C8CCC583CCDFE9DEE78023
:1003B7000D89828A83E493A3F608DFF9ECFAA9F0A2
:1003C700EDFB2289828A83ECFAE0A3C8C582C8CCF8
:1003D700C583CCF0A3C8C582C8CCC583CCDFEADE11
:1003E700E880DB89828A83E493A3F208DFF980CC73
:1003F70088F0EF60010E4E60C388F0ED2402B4046C
:100407000050B9F582EB2402B4040050AF23234512
:06041700822390037773BD
:10041D00BB010689828A83E0225002E722BBFE02DD
:09042D00E32289828A83E4932210
:10043600EF8DF0A4A8F0CF8CF0A428CE8DF0A42EDA
:02044600FE2294
:10044800C2D5EC30E709B2D5E4C39DFDE49CFCEECF
:1004580030E715B2D5E4C39FFFE49EFE12048CC3B7
:10046800E49DFDE49CFC800312048C30D507C3E4B2
:060478009FFFE49EFE223E
:0E047E00C3E49FFFE49EFEE49DFDE49CFC228F
:10048C00BC000BBE0029EF8DF084FFADF022E4CC54
:10049C00F875F008EF2FFFEE33FEEC33FCEE9DEC1D
:1004AC00984005FCEE9DFE0FD5F0E9E4CEFD22ED63
:1004BC00F8F5F0EE8420D21CFEADF075F008EF2FAD
:1004CC00FFED33FD4007985006D5F0F222C398FD9E
:0504DC000FD5F0EA223B
:00000001FF
